:020000040800F2
:1000000088040020490100084B16000879150008F3
:1000100049160008B5010008751700080000000027
:10002000000000000000000000000000D1160008E1
:100030004D020008000000004D16000809170008D6
:100040006301000863010008630100086301000800
:10005000630100086301000863010008B1020008A1
:10006000FD02000849030008950300086301000829
:1000700063010008630100086301000863010008D0
:1000800063010008630100086301000863010008C0
:10009000691700086301000863010008E103000814
:1000A00063010008630100086301000863010008A0
:1000B0006301000863010008630100086301000890
:1000C0006301000863010008630100086301000880
:1000D0006301000863010008630100086301000870
:1000E0005102000863010008630100086301000871
:1000F0006301000863010008630100086301000850
:10010000630100086301000863010008630100083F
:10011000630100086301000863010008630100082F
:10012000630100086301000863010008630100081F
:10013000DFF810D000F02CF800480047B517000891
:10014000AFF3008088040020064880470648004737
:10015000FEE7FEE7FEE7FEE7FEE7FEE7FEE7FEE777
:10016000FEE7FEE76517000831010008D2B201E0A2
:1001700000F8012B491EFBD270470022F6E710B5AC
:1001800013460A4604461946FFF7F0FF204610BD05
:10019000064C074D06E0E06840F0010394E80700D4
:1001A00098471034AC42F6D3FFF7C6FF101800088A
:1001B00030180008FEE7000010B523488AB0214936
:1001C00001600C210024C0E901144FF40031C0E9A2
:1001D0000341C9004161047644768476C47604778D
:1001E000447700F033FC08B100F02AF90120CDE992
:1001F00006400394089004940E20059409900094FE
:10020000019402946946104800F024FA08B100F005
:1002100017F90D4800F03AFD08B100F011F902217C
:10022000094800F097F908B100F00AF906482830AB
:10023000022104604460C4608460016104750AB0F6
:1002400010BD00000064004028000020704700003E
:1002500070B50A2000F0EAF8104E4FF40045294628
:10026000304600F06BFE0E4C40B96910304600F08D
:100270006AFE206801280ED001F000FA094900202A
:1002800008600948042101702178417001F022FAC8
:100290000648056070BD01F007FAEFE7000C014069
:1002A000240000205000002014000020140401400D
:1002B00010B50A2000F0BAF80C4C0221204600F0DC
:1002C0003DFE30B94FF48041204600F03CFE01F085
:1002D000BFF907480421017006490978417001F00F
:1002E000F9F905490220086010BD0000000C01402A
:1002F00014000020240000201404014010B50A203E
:1003000000F094F84FF480410A4800F01CFE0421EC
:10031000094800F013FE012801D101F0AFF90748A8
:100320000749042404700978417001F0D3F90548A5
:10033000046010BD000C01400018014014000020B2
:10034000240000201404014010B50A2000F06EF8CB
:1003500008210B4800F0F2FD012805D1810309486E
:1003600000F0F1FD01F0A0F90748042101700749F0
:100370000978417001F0AEF905490820086010BD08
:1003800000180140000C014014000020240000204F
:100390001404014010B50A2000F048F810210B4861
:1003A00000F0CCFD012805D18103094800F0CBFD08
:1003B00001F04EF90748042101700749097841709E
:1003C00001F088F905491020086010BD00180140AF
:1003D000000C0140140000202400002014040140FF
:1003E00010B50A2000F022F820210B4800F0A6FDED
:1003F000012805D18103094800F0A5FD01F028F985
:1004000007480421017007490978417001F062F939
:1004100005492020086010BD00180140000C014073
:1004200014000020240000201404014042F6DE6382
:1004300002E01946491EFDD2401EFAD27047000064
:1004400072B60C4C4FF4005500222946204600F0AD
:1004500082FD01222946204600F07DFD0122294629
:10046000204600F078FD01222946204600F073FD69
:10047000EAE70000000C014030B585B030480024A8
:100480000294816941F010018161816901F01001DC
:100490000491816941F004018161816901F00401E5
:1004A0000491816941F0040181618069022500F0B5
:1004B0000400049048F2020000902248019069462E
:1004C0000395214800F03EFC3C2000901F4801AA03
:1004D000694682E831001E4800F034FC00221146D3
:1004E000072000F0A7FD072000F096FD002211462E
:1004F000282000F09FFD282000F08EFD00221146EC
:10050000082000F097FD082000F086FD002211462B
:10051000092000F08FFD092000F07EFD0022114629
:100520000A2000F087FD0A2000F076FD0022114627
:10053000172000F07FFD172000F06EFD05B030BDE4
:100540000010024000002110000C014000001110BA
:100550000018014090F82020012A07D0022A05D077
:10056000416A41F48021416201207047006842697C
:100570000A43426100207047F0B590F820500468AB
:10058000A468012D05D0022D03D0416A41F48021D9
:100590005DE014F0406F01D1E50055D5C4F301646E
:1005A000022C03D9416A41F4000150E00125A54025
:1005B0001D608D684FF4C0739DB1CE6835434E68A1
:1005C00045EAC605066803EB0417F5514FF4C275FA
:1005D000076805EB04150E697E51097D012905D0D8
:1005E00009E00E88CD6845EA4655EBE701684E59AB
:1005F00046F480764E511179D579567941EA0561F4
:1006000095792D0445EA062529434FF4C6760568F9
:1006100006EB0416A9511178D57841EA0561957861
:1006200052782D0445EA022211434FF4C475026842
:1006300005EB04155151006803EB0411425842F0D8
:10064000010242500020F0BD416A41F400114162B4
:100650000120F0BD10B590F820300268012B07D0C2
:10066000022B05D0416A41F480214162012010BD76
:10067000D2F8000240F00100C2F80002087D00F04C
:100680001F0301209840D2F81C328343C2F81C3269
:10069000CB69B3B9D2F80C328343C2F80C328C89DF
:1006A0004B6864F31F434C6902EBC404C4F8403246
:1006B0000C890B6864F31F434C6902EBC404C4F853
:1006C0004432CB69012B16D1D2F80C320343C2F865
:1006D0000C320C884B6864F31F434C6902EBC40472
:1006E000C4F840320C89CB6864F31F434C6902EBB9
:1006F000C404C4F844328B69002BD2F804320FD002
:1007000053EA0003C2F804320B69002BD2F814320A
:1007100008D00343C2F81432096A012904D008E062
:100720008343EFE78343F5E7D2F81C120143C2F895
:100730001C12D2F8000220F00100C2F800020020D2
:1007400010BD90F82020012A07D0022A05D0416A66
:1007500041F48021416201207047006842698A4368
:10076000426100207047704730B590F82040012C5E
:1007700005D0022C03D0416A41F480215DE0046879
:10078000002955D02469A40754D04FF4D8740568C3
:1007900004EB01142D5915F00405956005682D59D9
:1007A0004ED0ED08556005682C5904F00204D46061
:1007B0004FF4DA74056804EB01142D5905F00F05A8
:1007C000156105682D59C5F30725956105682C59F4
:1007D000240C54614FF4DC72046802EB0112A4583B
:1007E0001C700468A458240A5C700468A458240C83
:1007F0009C700468A258120EDA704FF4DE7204681E
:1008000002EB0112A4581C710468A458240A5C71FC
:100810000468A458240C9C710468A258120EDA7162
:10082000006881B1016941F020010161002030BD03
:10083000E468A8E7416A41F400114162012030BD3B
:100840006D0D1560AFE7C16841F02001C160EDE7B3
:100850002DE9F05F0546006800244669D0F8049051
:100860008768D0F80CB0D0F810A0D0F81880F10745
:1008700048D0F90714D001218160B80703D5284674
:1008800000F032FA0CE0780702D54FF4006407E07C
:10089000380702D54FF4805402E0284600F022FACF
:1008A000F80516D529684FF480708860B80503D51F
:1008B000284600F030FA0CE0780502D544F40054E4
:1008C00007E0380502D544F4804402E0284600F0F1
:1008D00021FAF80316D529684FF480308860B803F0
:1008E00003D5284600F019FA0CE0780302D544F449
:1008F000004407E0380302D544F4803402E028467F
:1009000000F00AFA300707D55FEACB6004D5296802
:10091000102044F40074C86070074FF0080707D532
:100920005FEA0B7004D52868C760284600F066F9B6
:10093000B00706D52868C068800702D0284600F0B6
:100940005FF9700607D55FEACA6004D529681020F0
:1009500044F480640861B00607D55FEA0A7004D5E4
:1009600028680761284600F08DF9F00606D528684A
:100970000069800702D0284600F085F9B00308D549
:100980005FEAC96005D5296810204860284600F054
:100990007BF9F00307D55FEA097004D52868476042
:1009A000284600F0BBF9300446D55FEA497040D5CF
:1009B000F00504D55FEAC87001D044F00104B00529
:1009C00004D55FEA887001D544F00204700504D5AF
:1009D0005FEA487001D544F00404300529D518F0C9
:1009E000700F26D008F07000402815D006DC1028C3
:1009F00009D020280AD0302816D10AE050280ED07D
:100A0000602811D10EE044F008040DE044F0100419
:100A10000AE044F0200407E044F0400404E044F01D
:100A2000800401E044F480742868816921F0700139
:100A30008161296804204860002C05D0686A204341
:100A400068622846FFF78FFEBDE8F09F70B504008E
:100A500003D094F8200010B104E0012070BD2046BE
:100A600000F082F82068016841F00101016000F0A7
:100A700077FA0546052604E000F072FA401B0A28C2
:100A800011D820684068C007F6D02068016821F0BE
:100A90000201016000F064FA05460BE000F060FA24
:100AA000401B0A2806D9606A40F40030606284F86E
:100AB0002060D2E7206840688007EFD4207E0128BC
:100AC000206801683DD021F080010160607E01282E
:100AD0002068016838D021F040010160A07E012823
:100AE0002068016833D021F020010160E07E0128F8
:100AF000206801682ED041F010010160207F01289C
:100B00002068016829D021F008010160607F012878
:100B10002068016824D021F004010160D4E90201B9
:100B20000843D4E90412114308436168491E08438D
:100B30002168C86100206062012084F82000002044
:100B400070BD41F08001C0E741F04001C5E741F0D0
:100B50002001CAE721F01001CFE741F00801D4E7F6
:100B600041F00401D9E7000010B586B000210091E2
:100B700001910291039100681C49884233D11C48BD
:100B8000C16941F00071C161C16901F00071049156
:100B9000816941F0080181618069164C00F008000C
:100BA00004904FF4807000906946204600F0CAF827
:100BB00060150090022001900320039069462046B2
:100BC00000F0C0F80C48416821F4C04141F0E061F8
:100BD00041F48041416000221146142000F02AFABD
:100BE000142000F019FA06B010BD000000640040A7
:100BF00000100240000C014000000140704700005E
:100C000010B51D4B1D4A0021FFF7AEFD08B1FFF7DF
:100C100017FC1A480168A1F54072693A2BD1816826
:100C2000002928D10069022825D1134C207870B9F9
:100C30006078012801D100F00BFD6078022801D115
:100C400000F01CFD6078032801D100F02DFD207814
:100C5000012810D1094802211838016100210160E2
:100C60000548012108380170054909784170BDE83F
:100C7000104000F02FBD10BD1C00002068000020B7
:100C800024000020704770477047000070B504468C
:100C900090F82000012804D0606A40F400206062CF
:100CA00018E0022084F820002068016821F001018A
:100CB000016000F055F905460EE000BF00F050F964
:100CC000401B0A2808D9606A40F4003060620520A1
:100CD00084F82000012070BD20684068C007EDD175
:100CE000606270BD7047000010B504460121FFF737
:100CF00028FD064B06491A1D2046FFF73DFC034917
:100D0000091D4878401C487010BD000010000020EC
:100D100050000020704770477047704770470000D0
:100D200070B5044600F01CF90546601C02D004486A
:100D30000078044400F014F9401BA042FAD370BDBF
:100D4000000000202DE9F84FDFF8C891002409F1D8
:100D5000040A0AF1040B23460F270BF1040ED1E01D
:100D60000125A54006EA0502AA4276D1DFF8A8C10E
:100D70004E68A6EB0C0866452BD00DDC032E34D054
:100D800005DC36B3012E19D0022E2FD11BE0112E17
:100D900016D0122E2AD119E0B8F5881F19D006DC1A
:100DA000B8F5803F15D0B8F5801F1FD111E0B8F518
:100DB000001F0ED0B8F5041F18D10AE0CB6815E06B
:100DC000CB681B1D12E0CB6808330FE0CB680C33F7
:100DD0000CE08B682BB1012B4FF0080303D0456169
:100DE00004E0042302E0056100E00023FF2A01D8AB
:100DF000064601E000F104064FEA840501D9A5F199
:100E00002005D6F8008007FA05FC28EA0C0803FA4A
:100E100005F548EA0508C6F800804D68ED0070D574
:100E20003E4DAE6946F00106AE61AD6924F00306A1
:100E300005F0010500953A4D06EB050CDCF808506D
:100E4000A607360F07FA06F825EA0805DFF8D4806A
:100E5000404503D14FF0000825E052E0DFF8C8809C
:100E6000404502D14FF001081DE0DFF8C080404549
:100E700002D14FF0020816E0DFF8B480404502D1FD
:100E80004FF003080FE0DFF8AC80404502D14FF08F
:100E9000040808E0DFF8A080404502D14FF00508C3
:100EA00001E04FF0060808FA06F848EA0508CCF811
:100EB00008804D68D9F80060ED034D4601D5164312
:100EC00000E096432E604D68DAF80060AD035546A9
:100ED00001D5164300E096432E604D68DBF80060B4
:100EE000ED025D4601D5164300E096432E604D6845
:100EF000DEF80060AD02754601D5164300E096436A
:100F00002E60641C0A681646E2407FF429AFBDE8F3
:100F1000F88F000000040140000011100010024092
:100F20000000014000080140000C01400010014099
:100F30000014014000180140001C01408068084076
:100F400000D001207047C26821EA02030A4043EA48
:100F50000241016170470AB1016170470904FBE772
:100F60000148806870470000000000200248816846
:100F7000027811448160704700000020074810B5D6
:100F8000016841F010010160032000F073F80F20A8
:100F900000F006F800F024F8002010BD0020024008
:100FA00070B50D4D04464FF47A712878B1FBF0F01E
:100FB0000A490968B1FBF0F000F0CAFA48B9102CF0
:100FC00007D200222146501E00F034F800206C6049
:100FD00070BD012070BD0000000000200C0000204A
:100FE0000B4808B5816941F001018161816901F017
:100FF00001010091C16941F08051C161C06900F0F7
:10100000805000900348416821F0E061416008BDD4
:101010000010024000000140002809DB00F01F0220
:10102000012191404009800000F1E020C0F800114A
:1010300070470000F0B40E4B1B680C46C3F302234C
:10104000C3F10705042D00D90425191D072901D274
:10105000002300E0DB1E012606FA05F1491E2140AF
:1010600099409E40761E16403143F0BC00F083BB91
:101070000CED00E0064900F0070208684FF6FF0398
:10108000184040EA0220034A1043086070470000FD
:101090000CED00E00000FA052DE9F0470F460500D1
:1010A00061D0434E306800F00700B84209D2306882
:1010B00020F0070038433060306800F00700B84285
:1010C00051D128683B4C810712D5400703D5606891
:1010D00040F4E06060602878000703D5606840F461
:1010E000605060606068A96820F0F00008436060AC
:1010F0002878C00728D06868012810D02168022805
:1011000010D0890700292EDA616821F0030101431C
:101110006160FFF725FF804641F288390DE02168C4
:101120008903EFE78901EDE7FFF71AFFA0EB08015C
:10113000494502D90320BDE8F0876068696800F07E
:101140000C00B0EB810FEFD1306800F00700B8421F
:101150000BD9306820F0070038433060306800F069
:101160000700B84201D00120E5E72878400705D5FF
:101170006068E96820F4E060084360602878000750
:1011800006D56068296920F4605040EAC1006060BB
:1011900000F018F86168084AC1F30311515CC840B7
:1011A0000649086006480068FFF7FAFE0020C2E71B
:1011B0000020024000100240001800080C0000202F
:1011C0000400002012A185B00FC98DE80F0014A003
:1011D000144A006804905168134801F00C03042B72
:1011E00010D0082B0ED1C1F38343C9031DF80300AF
:1011F0000AD5516804AAC1F34041515C0A4A5043E0
:10120000B0FBF1F005B0704708494843FAE7000029
:1012100002030405060708090A0B0C0D0E0F101037
:10122000010200000010024000127A0000093D0097
:101230002DE9F84F040070D02078C04DC00749D088
:101240006868C0F38100012807D06868C0F3810096
:10125000022809D16868C00306D52868800339D5FB
:1012600060680028E7D035E06068B0F5803F0BD0BB
:1012700010B1B0F5A02F11D0286820F4803028607C
:10128000286820F4802002E0286840F4803028603C
:10129000606890B1FFF764FE06460AE0286840F4F3
:1012A00080202860F0E700BFFFF75AFE801B64280B
:1012B00073D828688003F7D50CE0FFF751FE064687
:1012C00005E000BFFFF74CFE801B6428F0D82868BB
:1012D0008003F7D420789A4E80074FF001094FF031
:1012E000000839D5686810F00C0F07D06868C0F3A3
:1012F0008100022809D16868C00306D428688007E5
:1013000014D52069012808D110E02069B0B1C6F8D1
:101310000090FFF725FE074605E00AE1FFF720FEF3
:10132000C01B0228C4D828688007F7D528686169DF
:1013300020F0F80040EAC10028600DE0C6F8008007
:10134000FFF70EFE074604E0FFF70AFEC01B022867
:1013500023D828688007F7D4207800072CD579484F
:10136000A169D9B1C0F80090FFF7FAFD074604E083
:10137000FFF7F6FDC01B02280FD8686A8007F7D573
:1013800071484FF4FA510068B0FBF1F0009000BFD3
:101390000098411E0091FAD20EE080E0C0F8008073
:1013A000FFF7DEFD074604E0FFF7DAFDC01B022869
:1013B00075D8686A8007F7D42078400760D5E86957
:1013C0000027C00008D4E86940F08050E861E8696F
:1013D000012700F0805000905C480168C90513D4D3
:1013E0000168834641F480710160FFF7B9FD8246D0
:1013F00006E000BFFFF7B4FDA0EB0A0064284ED85A
:10140000DBF80000C005F5D5E06801280AD008B176
:10141000052813D0286A20F001002862286A20F0ED
:10142000040002E0286A40F001002862E06841F20E
:10143000883B98B1FFF794FD82460BE0286A40F0A4
:1014400004002862EEE700BFFFF78AFDA0EB0A0167
:1014500059455AD8286A8007F6D50CE0FFF780FD79
:10146000824605E0FFF77CFDA0EB0A0159454CD808
:10147000286A8007F6D41FB1E86920F08050E8613F
:10148000E06988B36968C1F38101022944D0022868
:10149000C6F8608004D0FFF763FD044638E034E00E
:1014A000FFF75EFD074604E0FFF75AFDC01B022868
:1014B0002BD828688001F7D4206AB0F5803F05D189
:1014C0006868A16820F4003008436860D4E9080126
:1014D0000843696821F4741108436860C6F8609095
:1014E000FFF73EFD044606E025E000BFFFF738FDAC
:1014F000001B022809D828688001F7D51BE000BF2F
:10150000FFF72EFD001B022802D90320BDE8F88F4B
:1015100028688001F4D40EE00128F7D06868226AB8
:1015200000F48031914204D1616A00F47010884265
:1015300001D00120EAE70020E8E7000000100240A7
:1015400000004242800442420C0000200070004033
:1015500010B5401EB0F1807F01D3012010BD4FF0C7
:10156000E02460610F21601700F005F90020A06100
:1015700007202061002010BDFEE700001FB54FF4DA
:10158000C04000900120019002900320064C03907F
:1015900069462046FFF7D6FB00224FF480412046E3
:1015A000FFF7D9FC1FBD0000000C01407FB54FF4D0
:1015B000407000900120019002900320094D03909B
:1015C000002469462846FFF7BDFB0022A9152846DE
:1015D000FFF7C1FC002269152846FFF7BCFC024852
:1015E00004607FBD0014014024000020154808B5A8
:1015F000816941F010018161816901F01001009160
:10160000816941F004018161816901F00401009167
:10161000816941F008018161816901F0080100914F
:10162000816941F040018161816901F040010091CF
:10163000816941F020018161806900F02000009003
:1016400008BD000000100240FEE7FEE77047000002
:1016500010B5084C00224FF480712046FFF77BFC48
:10166000002261152046FFF776FC03490020086040
:1016700010BD0000001401402400002010B5084CEB
:1016800000224FF480712046FFF765FC01225102D1
:101690002046FFF760FC03490120086010BD0000F0
:1016A000001401402400002010B5074C0122510213
:1016B0002046FFF750FC012211022046FFF74BFCA9
:1016C00002490220086010BD0014014024000020DF
:1016D0007047000010B5012291030848FFF73BFC5A
:1016E00002E000BFFEF7ACFE054B06491A1DA1F152
:1016F0002800FEF741FF0028F4D110BD000C014086
:101700001000002050000020FFF730BC30B58FB033
:1017100028216846FEF731FD14210AA8FEF72DFDA9
:1017200001210804CDE9001000240294022504914F
:10173000CDE907504FF4E01009906846FFF778FDB7
:1017400060B90F20CDE90A056802CDE90C400221FD
:101750000AA80E94FFF7A0FC002801D0FEF770FE47
:101760000FB030BD704700000148FFF771B80000AE
:1017700028000020FEE70907090E002804DB00F11D
:10178000E02080F80014704700F00F0000F1E02026
:1017900080F8141D704702E008C8121F08C1002A13
:1017A000FAD170477047002001E001C1121F002AE2
:1017B000FBD17047FFF7E2FBFFF712FCFFF7A6FF34
:1017C000FFF714FFFFF7DAFEFFF7F0FEFEF754FE17
:1017D000FEF7F2FC094C4FF40055C820FFF7A0FAC1
:1017E000002229462046FFF7B6FBC820FFF798FAEB
:1017F000012229462046FFF7AEFBEEE7000C014030
:1018000000000000000000000102030406070809B0
:10181000301800080000002028000000961700087B
:10182000581800082800002060040000A6170008CF
:101830000100000010000000000000000024F4007F
:101840000000000000000000000000000000000098
:08185000000000000000000090
:0400000508000131BD
:00000001FF
